:020000040800F2
:1000000060120020410200082B1E0008771D000826
:10001000291E0008410F00084920000800000000C8
:100020000000000000000000000000009D1F00080C
:10003000430F0008000000002D1E00089F1F00084D
:100040005B0200085B0200085B0200085B0200081C
:100050005B0200085B0200085B0200085B0200080C
:100060005B0200085B0200085B0200085B020008FC
:100070005B0200085B0200085B0200085B020008EC
:100080005B0200085B0200085B0200085B020008DC
:100090005B0200085B0200085B0200085B020008CC
:1000A0005B0200085B0200085B0200085B020008BC
:1000B0005B0200085B0200085B0200085B020008AC
:1000C0005B0200085B0200085B0200085B0200089C
:1000D0005B0200085B0200085B0200085B0200088C
:1000E0005B0200085B0200085B0200085B0200087C
:1000F0005B0200085B0200085B0200085B0200086C
:100100005B0200085B0200085B0200085B0200085B
:100110005B0200085B0200085B0200085B0200084B
:100120005B0200085B0200085B0200085B0200083B
:100130005B0200085B0200085B0200085B0200082B
:100140005B0200085B0200085B0200085B0200081B
:100150005B0200085B0200085B0200085B0200080B
:100160005B0200085B0200085B0200085B020008FB
:100170005B0200085B0200085B0200080000000050
:100180005B0200085B02000800F002F800F049F88A
:100190000AA090E8000C82448344AAF10107DA45E2
:1001A00001D100F03EF8AFF2090EBAE80F0013F0EB
:1001B000010F18BFFB1A43F0010318474823000042
:1001C00068230000103A24BF78C878C1FAD85207D3
:1001D00024BF30C830C144BF04680C6070470000C1
:1001E0000023002400250026103A28BF78C1FBD840
:1001F000520728BF30C148BF0B607047782900F014
:10020000EB80002070471FB502F04CF99DE8030019
:1002100000F068FC00F05AFA1FBD10B500F0BFFAFC
:1002200010BD00F022FB1146FFF7EDFF02F00EF8C3
:1002300000F026FC03B4FFF7F0FF03BC00F0E4FD80
:100240000948804709480047FEE7FEE7FEE7FEE76A
:10025000FEE7FEE7FEE7FEE7FEE7FEE704480549A6
:10026000054A064B70470000392000088901000844
:10027000600C002060120020600E0020600E002044
:1002800053EA020C00F069802DE9F04B4FF00006B4
:10029000002B1FBFB3FA83F503FA05F424FA05F621
:1002A0005E4012BF1643B2FA82F502FA05F4C5F1B8
:1002B00020051EBF22FA05FC44EA0C04203556EA4C
:1002C000044C4FEA144418BF641C4FF000084FF070
:1002D0000009904271EB030C39D3002919BFB1FA20
:1002E00081F701FA07F6B0FA80F700FA07F6C7F1CE
:1002F00020071EBF20FA07FC46EA0C062037B6FB93
:10030000F4FCA7EB0507103F07F01F0BCBF120060D
:100310000CFA0BFB2CFA06F644BFB3460026202F3E
:10032000A4BF5E464FF0000B5BEA060C08BF4FF01F
:10033000010B19EB0B09ABFB027C48EB0608C01B59
:1003400006FB02CC0BFB03CC71EB0C01C1E70B46A7
:10035000024641464846BDE8F08B13B54FF0000019
:100360004FF00001AFF30080BDE81C407047000073
:100370000FB4044910B503AA029800F079F910BC33
:100380005DF814FB580B002070B5044685690068C1
:10039000C10601D5302600E02026C00707D070BD79
:1003A000D4E9012130469047206A401C20626D1E2E
:1003B000F6D570BD70B5044685690078C00707D1D1
:1003C00070BDD4E9012120209047206A401C2062A2
:1003D0006D1EF6D570BD000070B504460D46214671
:1003E0001068AFF300802188090502D50F4A7A44CE
:1003F00002E00E4A7A440E32002104F1240305E0A3
:1004000000F00F060009965D5E54491C0028F7D1E4
:1004100020780023000704D5702D02D009B10223F3
:1004200011322046BDE8704000F0C8B8CC20000072
:100430002DE9F05F894604464FF0000ADFF824B149
:10044000FB44C0F820A02046E168884700287DD002
:10045000252806D0D4E901219047206A401C20625B
:10046000F1E700255F462046E168884720280646D8
:1004700007DB312E05D2B81910F8200C08B105435E
:10048000F1E7A80701D525F00405C4F81CA0002752
:10049000C4F818A02A2E09D0304601F0E6FD38B382
:1004A00004EB8708303EC8F8186019E059F8041BBF
:1004B000204604EB87029161E1688847012F0646D8
:1004C00018D1E069002820DA25F020051DE0D8F8D1
:1004D000180000EB800006EB40003038C8F8180028
:1004E0002046E1688847064601F0BFFD0028EED1AE
:1004F000012F0AD02E2E08D12046E16888477F1CA4
:100500000646022F45F02005C4DBA069002803DA67
:10051000404245F00105A061E80701D025F0100533
:10052000A6B1A6F14100192802D8203645F400658D
:100530004A463146204625604D46FFF75FFE60B1D2
:10054000012807D0ED1D25F0070000E007E000F1CD
:10055000080978E705F1040975E730467AE7206A6B
:10056000BDE8F09FA22000004FF0000200B5134646
:1005700094469646203922BFA0E80C50A0E80C50C3
:10058000B1F12001BFF4F7AF090728BFA0E80C5074
:1005900048BF0CC05DF804EB890028BF40F8042B6D
:1005A00008BF704748BF20F8022B11F0804F18BFDA
:1005B00000F8012B70477047704770472DE9F047EE
:1005C0000D4699469246044600F1240801688806C3
:1005D00004D5E06921F01001216000E00120A8426B
:1005E00001DD471B00E00027A1697A1902EB090031
:1005F000081AA0612078C00602D42046FFF7C4FE86
:10060000002608E0D4E901211AF806009047206A84
:10061000401C761C20624E45F4DB2078C0060AD5CB
:100620002046FFF7B1FE06E0D4E9012130209047D3
:10063000206A401C2062381EA7F10107F4DC07E0A5
:10064000D4E9012118F805009047206A401C206277
:10065000281EA5F10105F3DC2046FFF7ABFE20784C
:10066000000602D50220BDE8F0870120FBE700006C
:10067000074B70B50D467B4400F011F80446284640
:1006800000F020F810B14FF0FF3070BD204670BD73
:10069000AB1B000001694A1C02610878704700B575
:1006A0008FB0CDE901310021059105497944CDE9AB
:1006B000031011466846FFF7BBFE0FB000BD0000F7
:1006C000E5FFFFFF007B00F08000704710B5424857
:1006D0005421FFF749FF41485421FFF745FF4048A7
:1006E0005421FFF741FF3F493B483C4A3F4B0860DC
:1006F0003D490A603A491960531C0365481C10655E
:10070000012008653B48344A39A1784400F01CF9BF
:1007100020B9384878440A3800F0BBF937482F4AE6
:1007200035A1784400F010F920B9344878440A38EB
:1007300000F0AFF932482A4A2FA1784400F004F9BA
:1007400020B92F4878440A3800F0A3F94023224802
:10075000DC000021224600F0D4F820B1254878447E
:10076000543800F096F91D4822464023002100F03D
:10077000C8F820B121487844543800F08AF9184864
:1007800022461023002100F0BCF8002806D01C48A7
:100790007844BDE81040563800F07BB910BD1048D1
:1007A00070B5006D20F001040B4800F043F90B48D0
:1007B00000F040F90A4800F03DF909E0206D20F012
:1007C0000105204600F036F9204600F073F82C466B
:1007D000002CF3D170BD0000040B0020580B00204A
:1007E000AC0B002014000020180000201C0000208A
:1007F00072000000E91D000077000000D51D000018
:10080000C11D00000EB5CDE9000100F0DDFA029037
:1008100069460120ABBE0EBD08B5694600900220B6
:10082000ABBE08BD1FB58DE8070069460520ABBE0D
:1008300004B010BD1FB58DE80F0069460620ABBEA1
:10084000F6E708B5694600900920ABBE08BD1CB5A7
:10085000CDE9000169460A20ABBE1CBD704708B552
:10086000694600900C20ABBE08BD754600F018F933
:10087000AE4605006946534620F00700854618B08D
:1008800020B5FFF7EBFCBDE820404FF000064FF02D
:1008900000074FF000084FF0000B21F00701AC46B5
:1008A000ACE8C009ACE8C009ACE8C009ACE8C009D4
:1008B0008D46704770B50446051F00F0F7F80068D4
:1008C000002C14BF446870BD002C18BFAC423CBF64
:1008D00020466468F8D301680A18AA4218BF456028
:1008E00003D12A6805461144016028684119A142D4
:1008F0001CBF6C6070BD6168696021680844286035
:1009000070BD70B5C468A50713D0650211D4B2F5E7
:10091000807F09D0B2F5007F06D0B2F5806F08D194
:10092000012300F1240106E05D1E6FF07F46B54211
:1009300001D3012070BD0161C361416024F4706185
:100940001143C160002070BD2DE9F0410C460746FF
:100950001646104600F06EF82078611C61280AD017
:10096000722802D077283CD102E00125002405E05E
:100970000225042402E0082448F2020511F8010BC4
:100980002B2806D0622809D011F8010C74280AD04F
:100990000BE045F0030544F00204EFE745F00405E1
:1009A00044F00104EAE744F0100438462146FFF71A
:1009B00029FF411C15D00021316171604FF4007195
:1009C000F560F1617061200704D5304602220021F4
:1009D00000F0E6F8306D40F0010030653046BDE8CB
:1009E000F0810020FBE72DE9F0410D460646104C52
:1009F000206DC10704D0410804D020F00104F7E7BE
:100A000022460EE0542000F09CF807000ED0206D26
:100A100047F001010843542120653846FFF7A4FD43
:100A20003A4629463046BDE8F0418DE70020D6E73A
:100A3000040B00202DE9F04704464FF000094FF069
:100A4000FF37C568D4E90486A80707D0204600F020
:100A500057F93046FFF7E0FE002802DA3846BDE8D5
:100A6000F087280502D54046FFF724FF4C21204699
:100A7000FFF77AFD206D20F0010020654846EEE783
:100A800010B50446AFF300802046BDE81040FFF7E4
:100A9000D1BB10B500F07EF9BDE8104000F074B98C
:100AA00000487047000C0020704700000048704765
:100AB000080C0020704770477047704738B50446EF
:100AC0000A4600206946AFF30080002808BF38BD01
:100AD00002460099204600F0A4F9012038BD01200B
:100AE00000F0F3B9F8B5AFF30080054600200C46DE
:100AF000102000BF0646A819A0420DD9324669460B
:100B00000020AFF30080070008BF00F0DEF9009876
:100B1000A04218BF0546C419FFF7C8FF0560074685
:100B2000F01D20F007004619284600F073F9B44282
:100B300008BFF8BDA21B31463868BDE8F84000F098
:100B400070B970B50646FFF7B1FF056806F10B00F6
:100B500020F00704B4429CBF002070BD2B466A6899
:100B6000BAB11068A04210D304F1080188423CBF1A
:100B70005068586007D35168101941601168091B0B
:100B8000016058601460101D70BD13465268002A41
:100B9000E7D121462846FFF791FF0028DED170BD3E
:100BA0002DE9F041044616460D464769007B800753
:100BB0002ED03846FFF745FE50BB3EB3012E02D083
:100BC000022E25D104E0204600F045F905441DE041
:100BD0003846FFF744FEE168002841F01001E1606B
:100BE00005DA204600F058F80120BDE8F081C9037D
:100BF0000BD56268E16A914200D81146A26911449E
:100C00002269891A814200DD08460544002D01DA77
:100C10000220EAE7E16A6068E268814206D2910355
:100C2000E06203D522F4003141F01002A6690027EA
:100C3000AE4213DCE16A814201D90B4600E0034673
:100C400003EB060C2369ACEB030CAC4506DD8142DB
:100C500001D98C4600E084469C4505D1A7602760F9
:100C600042F02000A5620DE0AD1BE669AE1B81429B
:100C7000A66000D90846C01A281A2060581960607A
:100C800022F0200003490840E060002084F848700A
:100C9000ABE70000BFCFD7FFC16821F4001141F0DE
:100CA0008001C16000218160016070472DE9F0473B
:100CB000814614460E464FF0FF383248D5685769D2
:100CC000054209D03846A169FFF7C1FD002811DBB4
:100CD0002C48C0430540E5602B463246494638461D
:100CE000FFF7A0FDA16920F00042B21A11440028CC
:100CF000A16103D02046FFF7CFFF4046BDE8F08753
:100D000070B504460569C06A6168884200D8084623
:100D1000E16821F42011E160C90312D5A84208D08E
:100D20002246411B2846FFF7C1FF10B14FF0FF30AC
:100D300070BD0020E562C4E90150E06820F4803015
:100D4000E060002070BD10B50446C06820F02000AF
:100D5000E060A16AA06988420DD02046FFF7D0FF6D
:100D6000E06820F4405040F01000E060A06AA0610C
:100D70002069E062606044F24001E0688843E0601E
:100D800010BD000010000200002801D000F03CB8A7
:100D90007047000010B5014602A000F07DF8012068
:100DA00010BD000053494752545245443A20526501
:100DB0006469726563743A2063616E2774206F7092
:100DC000656E3A200000000010B5431C02E010F8E8
:100DD000011B71B18107FAD14FF0013202C88C1AA0
:100DE0008C4314EAC211F9D0C01A0A0603D0C01EFF
:100DF00010BDC01A10BD0A0401D0801E10BD09022A
:100E0000FCD0401E10BD000001491820ABBEFEE71B
:100E10002600020000210160C0E901107047102087
:100E20007047034640688C46002818BF88423CBF84
:100E300003464068F8D318681844884207D00CF17C
:100E4000030020F00700001D411A521A0146081D38
:100E50000A60FFF72FBD10B50146C268900703D0A6
:100E6000900607D5886A0AE000F03EF8012101608B
:100E7000881E10BD8B69486818440B69C01A91F828
:100E800048301BB191F84910401A10BD1103FCD530
:100E90000028FADD401E10BD70B505460C460A203C
:100EA00000E06D1C00F018F835B128780028F8D162
:100EB00002E0641C00F010F814B120780028F8D18A
:100EC000BDE870400A2000F007B810B500F010F837
:100ED000BDE81040FFF758BF08B569468DF800001F
:100EE0000320ABBE08BD000000487047000C002086
:100EF00010B5012805D0002103A0FFF7CDFF012088
:100F000010BD09A1F8E7000053494752544D454D23
:100F10003A204F7574206F662068656170206D659A
:100F20006D6F7279000000003A2048656170206D95
:100F3000656D6F727920636F72727570746564008D
:100F4000FEE7704770B5044600F00CF90546601CDA
:100F500002D004480078044400F004F9401BA04289
:100F6000FAD370BD040000202DE9F84FDFF8BCA1D2
:100F70000022012503264FF00F090AF1040BAAF104
:100F8000040E00BF0B6805FA02F42340A34270D19F
:100F90000F7907F00307012F01D0022F16D18768C0
:100FA0004FEA420806FA08FC27EA0C07D1F80CC001
:100FB0000CFA08FC4CEA070CC0F808C04768A743C5
:100FC0000C79C4F3001494403C4344600C79E4432E
:100FD000A4070AD0C4684FEA420C06FA0CF7BC43D7
:100FE0008F6807FA0CF72743C7600C7904F00304F5
:100FF000022C12D1D40800EB840CDCF820405707F7
:10100000FF0E09FA07F824EA0804D1F8108008FA5C
:1010100007F848EA0408CCF8208004684FEA420C3C
:1010200006FA0CF7BC430F7907F0030707FA0CF731
:10103000274307604C6814F4403F70D03C4C27684D
:1010400047F480472760246822F0030704F48044B3
:101050000094384C07EB040CDCF8084897074FEA7B
:10106000177809FA08F7BC43334FB84202D100277A
:1010700024E054E0314FB84201D101271EE0304F47
:10108000B84201D1022719E02E4FB84201D10327FF
:1010900014E02D4FB84201D104270FE02B4FB84286
:1010A00001D105270AE02A4FB84201D1062705E001
:1010B000284FB84201D1072700E0082707FA08F7B0
:1010C0002743CCF80878DAF800405746D1F804C036
:1010D0009C435FEACC2C00D51C433C60DBF800400D
:1010E0005F46D1F804C09C435FEA8C2C00D51C43BA
:1010F0003C60DEF800407746D1F804C09C435FEACC
:101100008C3C00D51C433C60084F083F3C68D1F83C
:1011100004C09C435FEACC3C00D51C433C60521C9D
:10112000102AFFF42FAFBDE8F88F0000083C014003
:1011300044380240003001400000024000040240F8
:1011400000080240000C024000100240001402405F
:1011500000180240001C02400AB181617047090476
:10116000FBE7000001488068704700000400002091
:1011700002488168027811448160704704000020B1
:101180000B4810B5016841F400710160016841F439
:1011900080610160016841F480710160032000F00A
:1011A00061F80F2000F006F800F024F8002010BDD0
:1011B000003C024070B50D4D04464FF47A7128781A
:1011C000B1FBF0F00A490968B1FBF0F000F0BFFD97
:1011D00048B9102C07D200222146501E00F022F8F8
:1011E00000206C6070BD012070BD00000400002074
:1011F000100000200A4808B5016841F480410160F0
:10120000006800F4804000900548001F016841F02C
:1012100080510160006800F08050009008BD00001F
:1012200044380240F0B40E4B1B680C46C3F3022353
:10123000C3F10705042D00D90425191D072901D282
:10124000002300E0DB1E012606FA05F1491E2140BD
:1012500099409E40761E16403143F0BC00F0F5BE2A
:101260000CED00E0064900F0070208684FF6FF03A6
:10127000184040EA0220034A10430860704700000B
:101280000CED00E00000FA052DE9F0470E460500E0
:1012900065D0DFF81481D8F80000F7B200F007003D
:1012A000B04207D288F80070D8F8000000F00700BC
:1012B000B04254D128683D4C810712D5400703D570
:1012C000206840F4E05020602878000703D52068AB
:1012D00040F4604020602068A96820F0F0000843D6
:1012E00020602878C0072DD0304968680839012867
:1012F00012D0022813D0032811D0096889070029C9
:101300002DDA216821F0030101432160FFF72AFF54
:10131000814641F2883A0EE009688903EFE70968DF
:101320008901ECE7FFF71EFFA0EB0901514502D947
:101330000320BDE8F0872068696800F00C00B0EB7E
:10134000810FEFD1D8F80010404601F00701B142FB
:1013500007D90770006800F00700B04201D00120F3
:10136000E7E72878400705D52068E96820F4E050D1
:10137000084320602878000706D52068296920F4F2
:10138000604040EAC100206000F018F82168084A77
:10139000C1F30311515CC840064908600648006863
:1013A000FFF708FF0020C4E7003C02400838024075
:1013B000AE2400081000002008000020154810B5D9
:1013C000006810F00C02144813D04110042A0FD00A
:1013D000082A0ED10F4C241F2268236802F03F0216
:1013E0005B0207D52068C0F38810A0FB010106E06E
:1013F000084610BD2168C1F38811A1FB000100233C
:10140000FEF73EFF2168C1F30141491C4900B0FBD2
:10141000F1F010BD083802400024F4002DE9F84F27
:1014200004006ED02078DFF84C93C007A9F10405C2
:101430004AD009F104000168C1F38101012908D0F3
:101440000068C0F3810002280AD1D9F800004002E8
:1014500006D52868800337D560680028E1D033E0DE
:101460006068B0F5803F10D0B0F5A02F286810D08C
:1014700020F480302860286820F48020286060688C
:10148000A8B1FFF76FFE06460DE0286840F48030F3
:10149000F4E740F480202860F7E700BFFFF762FE22
:1014A000801B642873D828688003F7D50CE0FFF709
:1014B00059FE064605E000BFFFF754FE801B642876
:1014C000F0D828688003F7D42078DFF8AC82800752
:1014D0004FF0000A3ED5A748001D016811F00C0F1F
:1014E00008D00068C0F3810002280BD1D9F80000B1
:1014F000400207D42868800716D5E068012800D18B
:1015000012E033E1E068B8B10120C8F80000FFF74D
:1015100029FE064605E000BFFFF724FE801B0228D7
:10152000C0D828688007F7D52868216920F0F8001E
:1015300040EAC10028600DE0C8F800A0FFF712FEE5
:10154000064604E0FFF70EFE801B02281FD828681D
:101550008007F7D42078000722D5864F8748616935
:10156000703771B101210160FFF7FCFD064604E010
:10157000FFF7F8FD801B022809D838688007F7D5E7
:101580000EE0C0F800A0FFF7EDFD064605E082E0A2
:10159000FFF7E8FD801B02287DD838688007F7D464
:1015A0002078400768D5DFF8CCB100270BF13C0B61
:1015B000DBF80000C0000BD4DBF8001041F08051D4
:1015C000CBF80010DBF80000012700F080500090FD
:1015D0006B4E3068C00510D4306840F480703060C5
:1015E000FFF7C0FD009005E0FFF7BCFD0099401A31
:1015F000022850D83068C005F6D55E4EA0686C361B
:1016000001280FD00528306810D020F0010030608C
:10161000306820F004003060A068B8B1FFF7A2FD88
:1016200000900FE0306840F00100F4E740F0040063
:101630003060F7E7FFF796FD0099411A41F28830D4
:10164000814266D830688007F4D50EE0FFF78AFD46
:10165000009007E0FFF786FD0099411A41F28830BB
:10166000814256D830688007F4D42FB1DBF80010DF
:1016700021F08051CBF80010A069C8B33D49091D85
:101680000968C1F3810102294AD00228504607D0D7
:10169000C8F8600000E03CE0FFF764FD04463BE072
:1016A0004746C8F86000FFF75DFD064605E000BF4D
:1016B000FFF758FD801B02282BD828688001F7D43B
:1016C000D4E907010843A16A2E4A490802EB014107
:1016D000626A41EA8211084394F82C1040EA0161E1
:1016E000C9F8001001203866FFF73CFD044606E00B
:1016F0003EE000BFFFF736FD001B022809D828682E
:101700008001F7D534E000BFFFF72CFD001B022855
:1017100002D90320BDE8F88F28688001F4D427E0BF
:101720000128F7D0D9F80000E26900F48001914265
:101730001CD1226A00F03F01914217D147F6C071D7
:10174000626A0140B1EB821F10D1A26A4FF0FF33F1
:1017500000F4403103EB5202B1EB024F06D194F892
:101760002C1000F07060B0EB016F01D00120D1E7C8
:101770000020CFE70438024000004742800E474275
:10178000007000400000FFFF70B5040009D0606ADF
:10179000002540B125616561A56294F8510040B112
:1017A0000CE0012070BD6068B0F5827FF4D0E56187
:1017B000F2E784F85050204600F044F8022084F804
:1017C00051002068016821F040010160A088218952
:1017D00000F4827001F404410843A18901F400611E
:1017E0000843217C01F002010843217D01F0010141
:1017F0000843218B01F400710843217F01F0380177
:10180000084394F8201001F080010843218D01F471
:101810000051084321680860A069042101EA1040D2
:1018200094F8241001F010010843216848602068F2
:10183000C16921F40061C1616565012084F851002E
:10184000002070BD10B586B0044614216846FEF72E
:101850008BFE13492068884220D11248002102687B
:1018600042F480520260006800F4805005900D48F8
:101870001438026842F001020260006800F00100C2
:101880000590E02000900220CDE9010103200390A3
:101890000520049069460448FFF766FB06B010BDBA
:1018A0000030014044380240000002402DE9F84F6A
:1018B000044640680025984616460F464FF0040B34
:1018C000B0F5827F01D1A06888B194F8500001285A
:1018D00018D0012084F85000FFF744FC814694F8AA
:1018E00051004FF0000A01280ED0022582E084F852
:1018F00051B013460A462046CDF8008000F036F974
:10190000BDE8F88F0220FBE7002F72D0002E70D0C8
:1019100084F851B0C4F854A0A763A687E687C4F83A
:1019200030A0A4F834A0A4F836A0C4F840A0C4F8AD
:1019300044A0A068B0F5004F09D12068016821F0EB
:10194000400101602068016821F480410160206845
:101950000168490603D4016841F040010160E06874
:10196000D8B139E020688168C90709D0007BA16B34
:101970000870A06B401CA063E08F401EE0870CE065
:10198000FFF7F0FBA0EB0901414503D3B8F1FF3F9E
:1019900003D036E0B8F1000F33D0E08F0028E1D15A
:1019A0001DE020688168C90709D0C068A16B088064
:1019B000A06B801CA063E08F401EE0870CE0FFF767
:1019C000D1FBA0EB0901414503D3B8F1FF3F03D0A0
:1019D00017E0B8F1000F14D0E08F0028E1D14A469B
:1019E0004146204600F023FA08B120206065606D72
:1019F00000B10125012084F8510084F850A0284648
:101A00007EE70325F6E72DE9F84F044690F85000ED
:101A100000271D461646894601280DD04FF0010BC0
:101A200084F850B0FFF79EFB804694F85100BA4608
:101A3000012804D0022793E00220BDE8F88FB9F115
:101A4000000F73D0002E71D0032084F85100C4F829
:101A500054A0C4F83090A686E686C4F838A0A4F84E
:101A60003CA0A4F83EA0C4F844A0C4F840A0A068DC
:101A7000B0F5004F09D12068016821F040010160F4
:101A80002068016841F480410160206801684906CE
:101A900003D4016841F040010160E068B0F5006FD7
:101AA000606803D030B3012E24D041E008B1012E8C
:101AB0001CD1206B21680088C86006E0206881681E
:101AC000890709D5216B0988C160206B801C2063C0
:101AD000E08E401EE08609E0FFF744FBA0EB080023
:101AE000A84202D3681C01D031E07DB3E08E00280B
:101AF000E4D120E0206B21680078087306E02068BC
:101B00008168890709D5216B09780173206B401C16
:101B10002063E08E401EE0860AE0FFF723FBA0EB87
:101B20000800A84203D3681C02D010E017E06DB192
:101B3000E08E0028E3D142462946204600F0A6F96F
:101B400008B120206065A06818B106E0FFE7032710
:101B500006E02068C16880680090606D00B10127D0
:101B600084F851B084F850A0384666E72DE9F84F64
:101B7000044690F8500000270A9E1D4692468B4668
:101B80004FF0010901280ED0012084F85000FFF722
:101B9000E9FA804694F85100616801280CD0B1F54B
:101BA000827F07D102E00220BDE8F88FA16809B961
:101BB000042801D00227C2E0BBF1000F27D0BAF100
:101BC000000F24D01DB394F85100042802D0052042
:101BD00084F8510000206065C4F838A0E587A58727
:101BE000C4F830B0E586A58620646064206801688A
:101BF000490603D4016841F040010160E068B0F596
:101C0000006F606805D0E8B3012D46D07FE0012762
:101C100095E008B1012D39D1206B21680088C8609A
:101C2000206B801C2063E08E401EE0862EE0206842
:101C3000816889070FD5E18E69B1B9F1010F0AD129
:101C4000216B0988C160206B801C2063E08E401EE0
:101C5000E0864FF0000920688168C9070CD0E18F49
:101C600051B1C068A16B0880A06B801CA063E08F9D
:101C7000401EE0874FF00109FFF774FAA0EB08005F
:101C8000B04200E009E001D3701C50D1E08E002882
:101C9000CDD1E08F0028CAD13FE0206B21680078C9
:101CA0000873206B401C2063E08E401EE0862EE00F
:101CB0002068816889070FD5E18E69B1B9F1010FFC
:101CC0000AD1216B09780173206B401C2063E08EE0
:101CD000401EE0864FF0000920688168C9070CD0DB
:101CE000E18F51B1C068A16B0870A06B401CA0636C
:101CF000E08F401EE0874FF00109FFF733FAA0EBB9
:101D00000800B04202D3701C01D010E07EB1E08E1A
:101D10000028CDD1E08F0028CAD142463146204666
:101D200000F0B4F828B101272020606507E0032700
:101D300005E0A06818B92068C1688068009001209B
:101D400084F85100002084F8500038462CE710B584
:101D5000401EB0F1807F01D3012010BD4FF0E02480
:101D600060610F21601700F070F90020A06107206A
:101D70002061002010BDFEE730B587B01421684611
:101D8000FEF7F2FB15480024016841F08001016074
:101D9000016801F080010591016841F001010160D5
:101DA000016801F001010591016841F00201016043
:101DB00000680B4D00F0020005900022102128461B
:101DC000FFF7CAF9102000900120CDE9010469460F
:101DD00028460394FFF7C8F807B030BD30380240FA
:101DE000000002400F4810B50D4901604FF48271A8
:101DF000416000218160C1604FF400720161C0E95F
:101E000005121822C0E90721416281620A21C162DC
:101E1000FFF7BAFC002801D072B6FEE710BD000043
:101E200000300140AC0A0020FEE7FEE77047F8B53D
:101E3000044640684FF48273984221D1A0684FF461
:101E40008065B0F5004F01D0A8420AD1206806682D
:101E500026F0400606606068984211D1A068A8424A
:101E60000ED000920B4600228021204600F03AF866
:101E7000002804D0606D40F0200060650320F8BDAC
:101E800000920B4600220121EFE7000038B504461E
:101E90001248134B0068B0FBF3F04FF47A735843C9
:101EA00000906068B0F5827F0DD10B460092002251
:101EB0008021204600F016F870B1606D40F02000DF
:101EC0006065032038BD009830B1401E0090206846
:101ED0008068C0430006F6D5002038BD1000002001
:101EE00000366E012DE9F8431E46914688460446A9
:101EF000089DFFF737F9401B351AFFF733F90746FE
:101F000025480068C0F3CB30684338E0701C37D0F8
:101F1000FFF728F9C01BA84203D215B1009860B39F
:101F20002CE02068416821F0E00141606068B0F574
:101F3000827F0BD1A068B0F5004F02D0B0F5806F62
:101F400004D12068016821F040010160A06AB0F569
:101F5000005F09D12068016821F400510160206808
:101F6000016841F400510160012084F85100002013
:101F700084F850000320BDE8F8830025401E00903F
:101F80002068816838EA010004D000214945BDD1AC
:101F90000020F0E70121F9E7100000207047FFF76B
:101FA000E7B8000030B593B030216846FEF7DCFAA0
:101FB00014210CA8FEF7D8FA1D480025016841F04D
:101FC00080510160006800F080501190194801684C
:101FD00041F4804101600068022400F480401190C7
:101FE00001200090000401908001CDE9064008AA7C
:101FF0000420A82182E813000B906846FFF70EFA30
:1020000008B172B6FEE70CA90F2081E831004FF449
:10201000A0500F904FF48050109005210CA8FFF7AE
:1020200033F9002801D072B6FEE713B030BD0000CE
:1020300040380240007000400248016841F47001DD
:102040000160704788ED00E0FEE70907090E0028EF
:1020500004DB00F1E02080F80014704700F00F006E
:1020600000F1E02080F8141D704730380A2801D2B2
:10207000012070470020704771B5144D81B00022D7
:1020800010212846FFF768F84FF47A76334601228C
:1020900001A90F48FFF7B7FC3346012269460C48F7
:1020A000FFF704FC9DF80000334604020122694654
:1020B0000748FFF7FBFB9DF80000012204431021B5
:1020C0002846FFF749F820467CBD0000000002408A
:1020D000AC0A002031B50E4C82B0002210212046FF
:1020E000FFF73AF84FF47A752B46012202A9094806
:1020F000FFF789FC2B46012269460648FFF7D6FB0D
:10210000012210212046FFF727F89DF800003EBD70
:1021100000000240AC0A002073B50D4C0E460022B0
:1021200010212046FFF718F84FF47A752B4601224C
:1021300069460848FFF767FC2B461B2231460548D5
:10214000FFF7B4FB012210212046FFF705F87CBD04
:1021500000000240AC0A002033B581B0080A8DF8B7
:1021600000000E4C8DF80110002210212046FEF7D1
:10217000F3FF4FF47A752B46012201A90848FFF7B7
:1021800042FC2B46022269460548FFF73CFC01222F
:1021900010212046FEF7E0FF3EBD00000000024097
:1021A000AC0A002073B50D4C002210212046FEF72A
:1021B000D3FF4FF47A752B46012269460848FFF792
:1021C00022FC2B46012201A90548FFF71CFC012235
:1021D00010212046FEF7C0FF7CBD00000000024039
:1021E000AC0A002073B50D4C0E460022102120468B
:1021F000FEF7B2FF4FF47A752B4601226946084874
:10220000FFF701FC2B46012231460548FFF7FBFB97
:10221000012210212046FEF79FFF7CBD00000240F6
:10222000AC0A002008490968C90706D00649803968
:102230000968CA074FF0604101D1704700BF0A68C2
:10224000002AFBD008707047800E00E0FEF798FF70
:10225000FFF7A8FEFFF790FDFFF7C4FD0121084638
:10226000FFF7A0FF4020FFF707FF0146000410D54D
:102270005CA0FEF77DF84CF207111F20FFF76CFF02
:1022800005211D20FFF768FF00210A20FFF78AFFC4
:1022900003E05AA0FEF76CF8E4E74020FFF7ECFEFD
:1022A000014640040ED55BA0FEF762F80321092029
:1022B000FFF778FF6420FEF745FE37210720FFF780
:1022C00071FF03E04DA0FEF753F8E6E74020FFF76B
:1022D000D3FE0146000401D542A00FE047A0FEF75F
:1022E00047F8F3E751A0FEF743F86420FEF72AFE13
:1022F00002211120FFF730FF09E051A0FEF738F866
:102300002E20FFF7E7FE0146C007F6D0EAE740209F
:10231000FFF7B2FE0146000401D532A00EE037A05F
:10232000FEF726F8F3E741A0FEF722F84A4F002017
:102330004A4C40F68C25386009E041A0FEF718F8B9
:102340002E20FFF7C7FE0146C007F6D0EBE740207E
:10235000FFF792FEC007FAD0386821183020FFF747
:10236000DBFE38681B303860A842F0DB00263CA05A
:10237000A15DFDF7FDFF761CAE42F8DB02211120C6
:10238000FFF7EAFE4020FFF777FE0146000401D583
:1023900035A01EE019A0FDF7EBFFF3E738A0FDF72D
:1023A000E7FF386821181020FFF71CFF38681B3042
:1023B00038603C20FEF7C6FD3868A842F1DB0026F5
:1023C00035A0A15DFDF7D4FF761CAE42F8DBFEE739
:1023D0001BA0FDF7CDFF2E20FFF77CFE0146C007B6
:1023E000F6D0DBE70A20524459204461746131364B
:1023F0003D20307825303478000000000A20466106
:10240000696C3A204461746131363D203078253062
:10241000347800000A2053564320446174613136F9
:102420003D20307825303478000000000A20324505
:1024300020446174613D20307825303278000000FE
:102440000A204661696C3A20446174613D2030780D
:10245000253032780000000000000020200000201D
:102460003078253032782C000A205244595F3120D0
:102470004461746131363D20307825303478000075
:102480000A2032455F317320446174613D20307809
:1024900025303278000000000A203078253032786C
:1024A0002C0000004FF04070E1EE100A7047000071
:1024B0000000000000000102030406070809303193
:1024C000323334353637383941424344454640305B
:1024D000580030313233343536373839616263640D
:1024E000656640307800040000080000000000002D
:1024F000000200010000103A7474003A7474003A4B
:102500007474000024250008000000202000000052
:10251000C4010008442500082000002040120000EB
:10252000E0010008000000000100000010000000B1
:10253000000000000024F400000000000000000083
:042540000000000097
:040000050800018965
:00000001FF
